:020000022000DC
:106000000000042029A0090069A0090059AF090077
:106010006DA009006FA0090071A009000000000038
:10602000000000000000000000000000CD9E0900FC
:1060300075A0090000000000ED9E090079A009008C
:1060400021A209007BA00900F57C0900FD7707006B
:106050007BA009007BA00900097F09007BA0090043
:106060007BA009007BA009007BA009007BA00900A0
:106070007BA009007BA009007BA009007BA0090090
:106080007BA009005D9C09007BA009007BA00900A2
:106090007BA009007BA00900696209007BA00900C0
:1060A0007BA009007BA009007BA009007BA0090060
:1060B0007BA009007BA00900000000000000000098
:1060C0007BA009007BA009007BA00900C5A60900F0
:1060D0007BA009007BA009007BA00900896B02005E
:1060E000017D09007BA009007BA0090000000000E1
:1060F000000000007BA0090000000000F5A60900D8
:10610000000000000000000000000000000000008F
:10611000000000000000000000000000000000007F
:10612000000000000000000000000000000000006F
:10613000000000000000000000000000000000005F
:10614000000000000000000000000000000000004F
:10615000000000000000000000000000000000003F
:10616000000000000000000000000000000000002F
:10617000000000000000000000000000000000001F
:10618000000000000000000000000000000000000F
:1061900000000000000000000000000000000000FF
:1061A00000000000000000000000000000000000EF
:1061B00000000000000000000000000000000000DF
:1061C00000000000000000000000000000000000CF
:1061D00000000000000000000000000000000000BF
:1061E00000000000000000000000000000000000AF
:1061F000000000000000000000000000000000009F
:1062000010B5054C237833B9044B13B10448AFF3F0
:1062100000800123237010BDEC6E00200000000000
:106220001C5A0D0008B5034B1BB103490348AFF3DB
:10623000008008BD00000000F06E00201C5A0D0018
:10624000A3F5803A704700BF174B002B08BF134BD4
:106250009D46FFF7F5FF00218B460F461348144A71
:10626000121A89F053FD0E4B002B00D098470D4BAE
:10627000002B00D098470020002104000D000D489D
:10628000002802D00C48AFF3008089F067FC2000A2
:10629000290073F00BFF89F031FB00BF00000800FC
:1062A000000000000000000000000420EC6E002050
:1062B000C0F8012000000000000000000146014875
:1062C00000F07ABA246F002038B5054B1D78002401
:1062D000E0B2854203D900F02DFD0134F8E738BD66
:1062E000206F00202DE9F047074692B098461546EA
:1062F000002A00F090804B4B93F81C6193F81D111D
:1063000093F81EA1B21C83F81C214C1C8A1C83F834
:106310001D2164F07F040AF1010241F08009E4B21A
:1063200083F81E214222002101A889F0EFFC002DF4
:106330006DD0B8F1410F73D940F20220ADF80800DA
:1063400040F20940ADF80C0040F20120ADF8100019
:1063500024208DF8160034480690731C0120DBB20F
:106360008DF806608DF80E608DF81C008DF82660A3
:106370002E48397D8DF81E30032640F608320890ED
:106380008DF8273040F224608DF82B608DF8313085
:1063900008260A230427ADF804208DF814100222E1
:1063A0000521ADF824008DF82C6040F207508DF8DF
:1063B00034304FF4116640238DF807208DF81220F9
:1063C0008DF81510ADF828008DF83320ADF83800A1
:1063D0008DF83B208DF81F708DF82A90ADF82E6057
:1063E0008DF830708DF83AA08DF83C3007238DF889
:1063F0003F308DF8401044F2020342220DEB0701BA
:1064000028468DF84140ADF8423089F057FC4220D3
:1064100012B0BDE8F087924614469146164681E7D1
:106420000020F5E7246F0020200105242402020546
:10643000A0F11000FFF756BF07B503688DF80710ED
:106440005B6801220DF10701984703B05DF804FB7A
:1064500010B5407DFF2807D000F03CFC044608B989
:1064600074F094FA204610BD0020FCE707B5407D8B
:10647000FF2804D14FF0FF3003B05DF804FB0DF1AD
:10648000070100F04DFC0028F4D09DF80700F3E769
:1064900007B5407DFF280AD001220DF1070100F069
:1064A00025FC20B19DF8070003B05DF804FB4FF018
:1064B000FF30F9E7407DFF2801D000F03BBC70477A
:1064C000407DFF2801D000F095BC00207047F8B552
:1064D000437DFF2B06460F46144612D015465DB18C
:1064E000707D00F0D3FB38B12A463946707D00F04C
:1064F00061FC2D1A074401D1601BF8BD74F046FA07
:10650000EDE70020F9E7000000214FF47A72C0E9BE
:106510000112054A02F10801303202614FF47F4254
:1065200001608282704700BF64590B0010B5437D43
:10653000FF2B11D1094A137873B900F1100401211E
:10654000117043750649204600F0D2F921460548EE
:10655000BDE8104000F012B910BD00BF206F002050
:1065600054590B00246F0020FFF7E0BF10B504461C
:10657000044800F0B1F8044B00221A70FF23637541
:1065800010BD00BF246F0020206F002010B5407D9B
:10659000FF2807D000F07AFB044608B974F0F6F93A
:1065A000204610BD0024FBE707B549B940B969464C
:1065B00000F082FB009BB3F5966F01D100F0FAFA70
:1065C00003B05DF804FB00000148FFF79DBF00BF6A
:1065D000086F0020F0B50546002004462B5D2E19FB
:1065E000002B68D003F14002D2B2012A3DD9F42B2E
:1065F0003BD81A061BD40122A3F55846B6F5006F06
:1066000033D3B3F5803F14444FD31E2853DCA3F596
:10661000803342009E0A0A44C3F30903A6F52056BC
:10662000A3F5105321F8106002305380D6E703F031
:10663000E002C02A1BD103F01F03022206F1010C65
:1066400016441CF8017B07F0C00EBEF1800F0CD180
:1066500007F03F07664547EA8313F2D1022A16D1B5
:10666000A3F18006B6F5F06FC6D30134B6E703F0A8
:10667000F002E02A03D103F00F030322DEE703F068
:10668000F802F02AF1D103F007030422D6E7032A27
:1066900004D1A3F50066B6F5784FE5E7A3F580329F
:1066A000B2F5801FE1D20422A6E7202803D021F80A
:1066B0001030013092E7F0BD034690F850010B28EE
:1066C00008D839B1421C83F8502100F1480243F840
:1066D0002210704700207047F0B5234B89B003AA01
:1066E000044603F11007154618685968164603C694
:1066F0000833BB423246F7D11B8833800FCD264684
:106700000FC61A4A2B681068516833806B4603C362
:106710006B4603CB137A84F82030154BC4F818313C
:106720004FF48073A4F81C3104F118050123A06113
:10673000E16184F81E3165612022002104F5987022
:1067400089F0E4FA40F20943C4F82031094BC4F857
:106750002431094BC4F828310023C4F82C31042318
:1067600084F8503109B0F0BDCB590B00DD590B0056
:106770000900000198590B00A4590B0038B50446D4
:106780000846B4F81821B4F81A31616905689B1AF3
:106790002D680A449BB294F81C11A84758B1B4F86C
:1067A0001831626903449BB2A4F81831538094F8FD
:1067B0001C311371012038BD70B504460D46012609
:1067C000FFF78AFF40F2EF23A3804FF4E131044842
:1067D000A671FFF7ABFE284600F0DAF9304670BD2F
:1067E000086F00202DE9F041D0F82C5188B08C1CA6
:1067F000002D3BD1684600F0DFF9224603462C46C7
:10680000E1B28B4202F104022BD91B4D04AF05F11A
:1068100010083E46C64628686968BC46ACE80300D6
:10682000083545456746F6D11DF80470124D07F04E
:106830000F0108A8014411F8101C22F8021C286856
:106840006968B446ACE80300083575456646F6D17C
:1068500008A901EB1717013417F8101C22F8041CC3
:10686000CEE75800C0B208B0BDE8F0812146284606
:10687000FFF7B0FEF6E700BFBA590B0010B50446AB
:1068800079B103291BD090F850318B421CD901F10A
:10689000480300F5AA7150F82300FFF79BFEC0B231
:1068A00004E0D0F82031A0F854310120013040003C
:1068B00040F44070A4F8520104F5A97010BD00F531
:1068C000A971FFF78FFFF1E70020F7E70048704755
:1068D000246F0020014B5869704700BF246F0020CF
:1068E0000A4601460148FFF7C9BF00BF246F0020D8
:1068F00010B504460248FFF7DFFE207110BD00BF4F
:10690000246F0020024B53F8200000B1C06870478C
:10691000B870002030B40546084C54F825400846AD
:1069200011461A46BDF8083024B1246914B1A446B2
:1069300030BC6047002030BC704700BFB8700020FA
:1069400030B40546074C54F82540084611461A460F
:10695000BDF8083024B1646914B1A44630BC604766
:1069600030BC7047B870002000207047024B186898
:1069700008B190F860007047C07000202DE9F8431E
:106980001F461F4B0446186889469046002834D09D
:106990002C2303FB04001B4B066A456A846A002E05
:1069A00008BF1E46184B002D08BF1D46174B30462A
:1069B000002C08BF1C468AF07DFC082802463146A0
:1069C00028BF0822484689F079F928468AF072FCE7
:1069D00010280246294628BF1022404689F06EF949
:1069E00020468AF067FC042802462146384628BF24
:1069F0000422BDE8F84389F061B9BDE8F88300BF1F
:106A0000C0700020E6590B00EF590B00AD990B0048
:106A100070B50D4E34680546A4B12C2303FB004429
:106A2000636913B1984784F8320032682C2303FB62
:106A3000052393F832402CB923463A2202212846F6
:106A400000F048FF204670BDC0700020054B1B6859
:106A500010B533B12C2404FB0030C36A0B60038EE5
:106A6000138010BDC070002008B52022002305212E
:106A700000F030FF4FF0FF3008BD000030B4044696
:106A8000084611461A46064B1B6833B12C2505FBF8
:106A90000434E3690BB130BC1847012030BC7047A7
:106AA000C070002030B4044608461946074B029ACD
:106AB0001B6833B12C2505FB0434A3680BB130BC33
:106AC00018474FF0FF3030BC704700BFC070002047
:106AD00030B4044608461946074B029A1B6833B186
:106AE0002C2505FB0434E3680BB130BC18474FF08C
:106AF000FF3030BC704700BFC0700020044B1B68E3
:106B00002BB12C2202FB0030036903B118477047F8
:106B1000C0700020054B1B682BB12C2202FB0030FB
:106B2000836903B118470120704700BFC07000207F
:106B300004F0C2B807B5124B402283F82723002087
:106B400002F072FC4FF080430024D3F838548DF8E3
:106B50000040684673F0FCFA0A4B019301A873F0F9
:106B600055FB73F01DFBEB0702D5204604F0A4F89B
:106B700000214FF0FF3002F0B1FEFFF7A5FBF7E771
:106B800000E100E0316B0200002003F095BE000040
:106B900007B500230322CDE9002304490448C82295
:106BA00072F034FA03B05DF804FB00BFFC590B002F
:106BB000356B020074F09EBA4FF08052536E1BBAD0
:106BC0000360136E1BBA436008207047004870478B
:106BD000015A0B0070B51A4E33680D4611466BB35F
:106BE000012D01D0012070BD1478C4F34114012C93
:106BF00013D0022C22D15278012A07D0022AF1D1D7
:106C00008B88072B1AD10F4A138902E09A69AAB11F
:106C10001378BDE8704003F049BA5278222AE1D1D6
:106C20004A88003A18BF01225A7503F027FA3268E1
:106C3000D369002BD6D0507D9847D3E70020D2E708
:106C4000C47000200460002070B500F110050446F7
:106C5000284602F005FB3F2815D9E178002002F014
:106C6000A1FD80B1284602F0FBFA3F28E17807D960
:106C700004F536724023BDE87040002002F0B2BD3A
:106C8000002002F09FFD002070BD000010B50446FA
:106C900002F0B2FB08B9002010BD02F0B5FB0028DD
:106CA000F9D104484FF4567303FB0404207900F033
:106CB0000100F1E7C8700020054B4FF4567202FB4B
:106CC0000033986808609A899B7B8B718A80704733
:106CD000C870002008B5044B4FF4567202FB003018
:106CE000103002F0A5FA08BDC87000204FF45673AA
:106CF00058430A4B70B54FF6FE764FF6FF741D18D9
:106D0000B24288BF2246103092B2184402F0BAFA5A
:106D100004462846FFF798FF204670BDC870002043
:106D2000034B4FF4567202FB0030103002F0ADBA44
:106D3000C87000202DE9F041044602F05DFB10B957
:106D40000020BDE8F08102F05FFB06460028F7D185
:106D50004FF45671154D4C4304F12408A8444046A5
:106D600002F066FA0028EBD02F193046B97802F00D
:106D700019FD0028E4D004F5467425442946402234
:106D8000404602F07FFAB978044658B103462A46D5
:106D9000304602F027FD38B9054B1B68DB07CFD51D
:106DA00000BECEE702F00EFD2046CAE7C870002004
:106DB000F0ED00E00E4B70B54FF4567404FB003458
:106DC00005464FF6FF734FF6FE70824288BF1A46A3
:106DD000243492B2204602F073FA0646204602F0AE
:106DE00027FA3F2802D92846FFF7A4FF304670BD96
:106DF000C870002008B5044B4FF4567202FB0030F7
:106E0000243002F02DFA08BDC870002073B51A4C6A
:106E10004FF456720021204688F078FFFF236371FB
:106E20004FF4E1330025A36008230126A37304F186
:106E30003801009501234FF4807204F11000A58100
:106E400002F0C5F933464FF4807204F59C71009648
:106E500004F1240002F0BBF904F50E71304671F024
:106E600087FD04F52271C4E90750304671F080FDBA
:106E7000C4E90C0502B070BDC870002010B5094C03
:106E800000232360237104F11000243402F01EFA61
:106E9000204602F01BFA20460121BDE8104002F016
:106EA00035BA00BFC8700020F7B54B79022B0746F2
:106EB00003D00025284603B0F0BD8B79022BF8D112
:106EC0001F4EB3787BBB8B7833700C7809250C444C
:106ED00003E023781D44ADB21C446378242B1BD1FE
:106EE0009542F6D96378042B12D163790A2B0FD11E
:106EF000144B267801930133009302231A46A119FB
:106F0000384602F01BFC70B10E3516FA85F5ADB2AD
:106F10000B48FFF799FECDE7052BE3D12146384614
:106F200002F0E8FB28B9084B1B68DB07C1D500BE9F
:106F3000BFE7A378737023781D44ADB21C44D1E73A
:106F4000C8700020CA700020F0ED00E038B50B4694
:106F50001146127802F06002202A47D1244A8C8818
:106F60001578A54242D14C78203C032C3ED8DFE86E
:106F700004F002141731012B05D11E4A072303F038
:106F800095F8012038BD032BFBD11B4B002BF8D00B
:106F900018490020AFF30080F3E7012BF1D1ECE7B3
:106FA000012B02D103F06AF8EBE7032BE9D14C88FF
:106FB0001248147104F0010585F0010102F0A6F9F0
:106FC0000F4B002BDDD0C4F3400229460020FFF711
:106FD000EBFAD6E7012BE5D0032BD2D1094B002BDE
:106FE000CFD049880020AFF30080CAE70020C9E76E
:106FF000C8700020D070002000000000EC7000205D
:10700000A9650200000000002DE9F3471C46374B3C
:10701000DA788A4207460E461D4607D09B788B4297
:1070200058D1AB78B34232D001245AE003F536711F
:1070300003F11000A2B202F043F92D4B2BB92D4BF6
:10704000EBB92A48FFF700FEEBE76B79FF2BF6D090
:1070500005F536794FF0000805F1100AA045EED08D
:1070600019F8013B6A799A4206D1504602F0F0F8CD
:1070700010B96979AFF3008008F10108EEE71E4806
:1070800002F0E6F80028DCD1AFF30080D9E71B4B13
:1070900013B10020AFF300800020FFF74BFE002863
:1070A000C2D1174802F0C4F80028BDD1002CBBD0D3
:1070B00014F03F03B8D1A9780193384602F072FB6F
:1070C000019B04460028AFD0A9781A46384602F042
:1070D00089FB06E00B4B1C6814F0010401D000BED4
:1070E0000024204602B0BDE8F08700BFC870002031
:1070F0000000000000000000D87000200000000028
:10710000EC700020F0ED00E002484FF48C7200219A
:1071100088F0FCBD207400200020FFF7F5BF0000C0
:107120002DE9F34713464A79032A81460D4604D0D8
:107130000024204602B0BDE8F0870A79C2EBC20401
:107140001234A4B29C4223D8284B59781F4629B147
:1071500093F88D30E3B94FF0010800E088462B78B2
:10716000E9184878212813D18C2606FB08F607EB8E
:10717000060ACAF88810E85C731C3B440193B31CF0
:107180003B44009301440323484602F0D7FA28B950
:10719000174B1B68DA07CBD500BEC9E7AB79012BCB
:1071A00004BFEB798AF803308C2303FB08F807EB64
:1071B000080301221A71AA7807F80820D3F888205A
:1071C0009978B2F80720DA800029B2D006F1480297
:1071D00040233A44484602F005FB0028A9D1044B5D
:1071E0001B68DB07A5D500BEA3E700BF2074002005
:1071F000F0ED00E013782DE9F74303F01F06012EB0
:1072000007460C46154601D0002480E091887D4A4F
:107210001078C9B2884291460AD092F88C208A42EE
:10722000F2D113F060032AD1012C03D001246EE0C7
:107230000026F6E76B78062BE6D16B881B0A212B1C
:107240000ED18C2202FB0696D6F88820002ADBD0CD
:1072500013782946384603B0BDE8F04302F026BF54
:10726000222BD1D13046FFF74DFB8C2303FB069632
:107270000246F3882946384602F018FF47E0202BE3
:10728000C2D16B78013B0A2BBED801A252F823F081
:10729000BD720200B7730200C973020009720200D6
:1072A00009720200097202000972020009720200EA
:1072B0002B73020089730200DB730200012CB5D12D
:1072C00008234FF08C0C1CFB063CEB886988402B94
:1072D0004FEA1122184628BF402011F0FF0109EBA8
:1072E0000C0818D0012B16D9013809F80C1008F138
:1072F000010380B200903046FFF70CFB0444A4B2B7
:1073000064B9414B1B68DB077FF57EAF00BE2046AA
:1073100003B0BDE8F08343460024EBE72346424632
:107320002946384602F0C2FE80E7012C08D1EB88DE
:10733000402B3FF669AF8C2202FB0692483299E758
:10734000032C7FF473AF6988ED884823402D4FF0FC
:107350008C044FEA112214FB0634284628BF402033
:1073600011F0FF0109EB040309D0012D07D919F829
:1073700004408C4202BF00F1FF30013380B2009024
:107380003046FFF7DDFA51E7012C7FF44FAF6988F3
:107390001E4B8C2202FB0699090A89F805102BB1B5
:1073A0003046AFF3008000283FF42EAF2946384620
:1073B00002F064FE3AE7012C7FF438AF8C2202FB26
:1073C00006922346053255E7012C7FF42FAF8C221D
:1073D00002FB0692234604324CE7012CE6D0032C34
:1073E0007FF424AF69880A4B8C2202FB0699C9B24C
:1073F00089F80410002B3FF419AF3046AFF300803A
:1074000014E700BF20740020F0ED00E00000000051
:107410000000000073B5224C0546A07862788842CF
:1074200012D08A4210D094F88E0094F88D208842B1
:1074300012D0914210D01B4B1B68DA0702D40020F7
:1074400002B070BD00BEFAE7002062788A420CD11B
:10745000154A22B90120F3E78C340120F5E79AB2EE
:1074600004F10801AFF30080F4E7A2788A42F1D179
:10747000002204F148069BB2114600933346FFF701
:107480005FFAA17840233246284602F0ABF9002883
:10749000E0D1044B1B68DB07D1D500BED0E700BFAD
:1074A00020740020F0ED00E00000000070B500F155
:1074B00010050446284601F0D3FE3F2817D9A178CD
:1074C000002002F06FF990B1284601F0C9FE3F2874
:1074D000A17807D904F5EC724023BDE87040002084
:1074E00002F080B9BDE87040002002F06BB970BDB9
:1074F00070B500F124040546204601F099FE08B954
:10750000002070BD6978002002F04CF90028F7D007
:1075100005F5067631462046402201F0B3FE697833
:10752000044658B103463246002002F05BF938B9F0
:10753000044B1B68DB07E3D500BEE2E702F042F92B
:107540002046DEE7F0ED00E037B5154C00254FF49E
:1075500016720021204688F0D9FB04F1380100950D
:107560000123802204F1100001F031FE012380226A
:1075700004F1B801009504F1240001F028FE04F59F
:107580009C71012071F0F4F904F5C471C4E907504D
:10759000012071F0EDF9C4E90C0503B030BD00BF66
:1075A00074F5012010B5084C10220021204688F007
:1075B000ADFB04F1100001F089FE04F12400BDE8E8
:1075C000104001F083BE00BF74F501202DE9F047A3
:1075D0004B79012B8046924603D000252846BDE812
:1075E000F0878B79012BF8D1CB79002BF5D10C7872
:1075F00023460C446278242A06D15345EDD82278DC
:1076000013449BB21444F5E7042AE6D16279012AB7
:10761000E3D1A279032AE0D1E579002DDDD11E4A1C
:10762000577891780F43914630D1A27889F800209D
:1076300026789D19ADB2264410E0B378DA0914BF5C
:1076400089F8013089F80230337801371D44ADB232
:107650001E44FFB233781D44ADB21E442379BB42B1
:1076600003D80D48FFF722FFB8E75545F9D87378DE
:10767000052BEFD13146404602F03CF80028DCD122
:10768000064B1B68DA07A8D500BEA6E7034B1B68AC
:10769000DB07A2D500BEA1E774F50120F0ED00E004
:1076A0000020704773B51F4D1C46AB788B420646D1
:1076B0001DD06B788B422BD12846FFF719FF28BBD2
:1076C00005F1240001F0B4FD00BBFCB114F03F0350
:1076D0001CD169780193304602F064F8019B04469E
:1076E000A0B169781A46304602F07CF817E0A2B2E1
:1076F00005F5EC7105F1100001F0E2FD0A4B13B144
:107700000020AFF300800748FFF7D0FE012406E019
:10771000064B1C6814F0010401D000BE0024204672
:1077200002B070BD74F5012000000000F0ED00E033
:10773000034B43F602229A87002283F83E207047CB
:107740003877002030B4104B02249A6B83F82C1049
:10775000996883F8304093F83C408A1A9A6224B9B9
:1077600042F205059D8783F83E4051B14AB11A7B2C
:10777000D20930BC14BF93F82E1093F82F1002F0EA
:1077800071B830BC704700BF3877002038B5144B53
:10779000144C054673B1607BFFF7BCF950B942F257
:1077A000077384F83E00A38728460121BDE83840CE
:1077B000FFF7C8BFA26BA36894F82F109B1AB3F50C
:1077C000007F28BF4FF40073074A9BB2284602F09F
:1077D00009F820B9054B1B68DB0700D500BE38BD92
:1077E000156B02003877002038750020F0ED00E0BE
:1077F00070B5254CE28AA36852BA92B286B00546AB
:1078000012B1B3FBF2F292B2A06BD4F81110B0FB3C
:10781000F2F61B1AB3F5007F28BF4FF4007309BAC4
:10782000009302FB1602194B607B3144FFF73AF9D3
:10783000031E07DAFFF77CFF01212846FFF782FFCE
:1078400006B070BD94F82E1010D1CDE90333072295
:107850008DF8101003A819468DF80C508DF80D20E6
:1078600005938DF8113001F05BFEE9E7074A9BB202
:10787000284601F0B7FF0028E2D1054B1B68DB0763
:10788000DED500BEDCE700BF387700203875002069
:10789000F0ED00E0C28A836852BA92B223B9002A9E
:1078A0000CBF002002207047C17B282904D1017B36
:1078B000C90906D1022070472A2902D1017BC909D2
:1078C000F8D122B1934234BF02200020704701203A
:1078D00070470000044880F83C1080F83D2080F894
:1078E0003E300120704700BF387700200248402218
:1078F000002188F00BBA00BF3877002002484022F0
:10790000002188F003BA00BF3877002073B54B79A7
:10791000082B054602D0002002B070BD8B79062BE3
:10792000F9D1CB79502BF6D1162A05D8174B1B6805
:10793000D907F0D500BEEEE7154C8B7884F82D30D2
:1079400004F12E030E78019304F12F030093022318
:107950001A46314401F0F2FE28B90C4B1B68DA07D5
:10796000D9D500BED8E7002384F8303094F82F1022
:107970001F232246284601F035FF20B9034B1B6820
:10798000DB0700D500BE1720C6E700BFF0ED00E022
:1079900038770020F0B5012985B00646154615D187
:1079A000137803F07F02022A46D16C78012C43D170
:1079B0006A88002A40D13C4AAB8892F83070042F84
:1079C000DBB2154604D1194601F04CFF012017E047
:1079D00092F82E10994215D1022FF7D19368946B2B
:1079E0001B1B9362032382F830300D23203201F0F9
:1079F000F9FE0028EAD12D4B1B68DB0752D500BEEB
:107A000005B0F0BD92F82F109942DFD1002FDDD1E3
:107A1000019101F019FF01990028D7D1304602F0F9
:107A2000BFFA0028D2D1002385F830301E4A95F8DD
:107A30002F101F233046DAE703F06003202B31D1EB
:107A40006B78FE2B13D0FF2B2CD16B8853BBE988AE
:107A50008AB23ABB144B304699872946C3E90D22B6
:107A600083F8302083F83E2002F008FBAEE76B88F5
:107A7000C3B9EB88012B15D18DF80F300C4B1BB11E
:107A8000FEF774FF8DF80F009DF80F3053B1013BE6
:107A90008DF80F300DF10F0201232946304602F018
:107AA00005FB93E70020ABE738770020F0ED00E01E
:107AB0006D6902002DE9F041AB4C94F83070012F54
:107AC0008EB005461E4600F09F81032F00F00D8208
:107AD000002F42D194F82F308B4201D0012013E0C7
:107AE0001F2E03D12268A14B9A4210D094F82E1079
:107AF0000423284684F8303001F0B4FE94F82F10A7
:107B0000284601F0AFFE00200EB0BDE8F081984B92
:107B100023626368E67BD4F8088084F82C70C4E99B
:107B20000937012384F8303006F0FD03282BC4E91F
:107B30000D872CD12046FFF7ADFE014618B128462F
:107B4000FFF700FE09E0B8F1000F00F05781282E82
:107B500040F0AA812846FFF74BFE94F83030022B04
:107B6000BCD194F82E10284602F01AFA0028B5D19C
:107B7000A368A26B94F82E10934240F2DF81207B21
:107B8000C00900F0DB81284601F06CFEA6E7B8F1E1
:107B9000000F15D0237BDB0912D1B8F5007F01D986
:107BA0000121CCE7734A1FFA88F3284601F01AFE38
:107BB0000028D2D1704B1B68D907A4D500BEA3E71B
:107BC000252E94F80D8008D8192E14D8032E00F015
:107BD000DD80122E00F08C8066B394F83C30002BD0
:107BE000DED1A38E634A6549607BFEF73DFF002826
:107BF00080F2FD80D4E71A3E0B2EEED801A353F895
:107C000026F000BF337D02004F7C0200DB7B0200C8
:107C1000DB7B0200DB7B0200DB7B0200DB7B020004
:107C2000DB7B0200DB7B0200A97C0200DB7B020025
:107C30006B7C02004046FEF7EBFE002840F0DA8045
:107C400094F83C30002BC8D1FFF772FDC5E74C4BD0
:107C5000002B00F0CF80E17C4046C1F3400301F0EF
:107C600001020909FEF70AFFE7E704AA05A9404651
:107C7000FEF7ECFE059B002BE2D0BDF81020002A99
:107C8000DED03C49013B1BBA12BAC1E900320820E0
:107C9000A368002B84D0834228BF03466363354A20
:107CA00094F82E109BB280E700230DF10E0205AE72
:107CB00004A94046C6E901330593FEF7C7FE049ABE
:107CC000002ABDD0BDF80E30002BB9D012BA5BBA75
:107CD000082106920222ADF81E308DF817108DF89B
:107CE0001C2096E80700234B83E807000C20CFE711
:107CF000244B204F0022CDE905324FF020361F23C0
:107D00001022202109A8CDE907668DF8183087F0E8
:107D1000FDFF0D960DAB09AA07A9404605AEFEF77B
:107D20002DFE0FCE0FC70FCE0FC733683B60242048
:107D3000AEE7059B03F4000343F003030593124BE6
:107D40007BB14046FEF7E6FE9DF8163080F001005C
:107D500060F3C7138DF81630064B059A1A6004209D
:107D600096E70120F0E700BF3877002055534243E3
:107D70005553425338750020F0ED00E0477700205E
:107D80007D6A020000800202156B020012220021AF
:107D900005A887F0BBFF94F83C0094F83D1094F8D8
:107DA0003E208DF82010F0238DF814304FF00003A2
:107DB00060F303038DF816300A238DF81B308DF81D
:107DC000212005AE0FCE644F0FC733683B80634B55
:107DD000C3B14FF40072A7F110014046AFF3008029
:107DE00000239842A38784F83E30FFF6F6AE0028C1
:107DF0007FF44EAFA368002B7FF4D2AE022384F849
:107E00003030AAE61220EBE7E37BA26B282B05D1EA
:107E1000636B32449A42A263F0D29BE62A2B47D18D
:107E2000E08A40BA80B218B1A368B3FBF0F080B228
:107E3000D4F81110484FB2FBF0FC09BA00FB1C2229
:107E40000096607B3B466144FEF742FE002805DA5F
:107E5000A36B3344A363FFF76BFCA1E686421DD9F5
:107E6000361A40B1A16B11FA80F1A163324639187C
:107E7000384687F031FF002194F82F30079607220B
:107E800005A8CDE905118DF814508DF815208DF851
:107E900018308DF8191001F043FB5EE6A36B1E4409
:107EA000636BA6639E42A9D22846FFF76FFC54E697
:107EB000237B3244DB09A2630CD1A38E264A607B6C
:107EC00004F10F01FEF7D0FD002803DA39462846F9
:107ED000FFF738FCD4E90D329A428FD2204B1B6851
:107EE000DB077FF53AAE00BE37E694F82E308B42C2
:107EF0007FF433AE0D2E7FF430AEE37B282B09D018
:107F00002A2B14D0174B53B1607B04F10F01AFF350
:107F1000008004E0144B13B1607BAFF300800023BA
:107F200084F83030114A94F82F101F233DE6104B8F
:107F3000002BF4D0607BFEF7E1FDF0E79B1AA36213
:107F4000032384F830300B4A0D23284601F04AFC05
:107F500000287FF4C3AD2DE6387500200000000036
:107F6000F0ED00E000000000000000003877002085
:107F7000FD6A02005877002010B504468178002081
:107F800001F010FC90B1201D01F06AF93F28A178A2
:107F900007D904F5A6724023BDE81040002001F087
:107FA00021BCBDE81040002001F00CBC10BD000059
:107FB0002DE9F041044601F01FFA10B90020BDE898
:107FC000F08101F021FA06460028F7D14FF4E6715E
:107FD000154D4C4304F11808A844404601F028F917
:107FE0000028EBD02F193046797801F0DBFB002810
:107FF000E4D004F5C674254429464022404601F0E9
:1080000041F97978044658B103462A46304601F0D2
:10801000E9FB38B9054B1B68DB07CFD500BECEE7BF
:1080200001F0D0FB2046CAE778770020F0ED00E0B1
:1080300037B5144C00254FF4E6720021204687F036
:1080400065FE04F12C01009501234022201D01F062
:10805000BEF80123402204F16C01009504F11800E0
:1080600001F0B5F804F1AC01012070F081FC04F1DD
:10807000FC01C4E90450012070F07AFCC4E9090550
:1080800003B030BD7877002010B5064C20460023A1
:1080900040F8043B01F01AF904F11800BDE8104063
:1080A00001F014B978770020F7B513464A79FF2A12
:1080B0000D4602D0002003B0F0BD1A4E7178B278A0
:1080C0000A43F7D1AA782C7832702A792C442AB343
:1080D000234403E09C4204D221780C4461780529B2
:1080E000F8D1114F01977B1C00932146022301F028
:1080F00025FB28B90D4B1B68DB07DBD500BEDAE793
:108100002B79C3EBC3031C44B37813B1781EFFF77C
:1081100033FF737813B10020FFF74AFF601B80B272
:10812000C9E700BF7877002079770020F0ED00E004
:1081300008B5114882788A4204D042788A4211D028
:10814000002008BD9AB200F5A671043001F0B8F81D
:108150000A4B13B10020AFF300800748FFF70CFF74
:108160000120EEE7064A1AB199B20020AFF3008071
:108170000020FFF71DFFF3E77877002000000000E4
:1081800000000000C3883BB1027804490B2000FBCB
:10819000021210681844704718467047447900204E
:1081A000884202D24378934200D170470378184442
:1081B000F6E7000038B50B4D1446884201D3084657
:1081C00038BD8378112B06D825FA03F3DB0702D5D7
:1081D000C378A342F4D0037824221844FFF7E0FFC9
:1081E000EBE700BF5010020010B51446884201D3DF
:1081F000084610BD837803F0FD02052A01D0112B3B
:1082000002D1C378A342F4D0037824221844FFF7A4
:10821000C7FFEBE72DE9F0410C46FFF7B3FF18B1BC
:10822000A278037B9A4207D9484B1B68DB0700D52D
:1082300000BE0020BDE8F0812AB9012B01D9012040
:10824000F8E70122A2706FF03F03A3766FF00303FB
:10825000E3766FF064032377032300254FF00108D2
:10826000A377082384F808806572A572E57284F804
:108270000E80E5732574657484F81D8084F81F8072
:1082800084F8208084F8218084F8225084F82330F8
:108290000378B0F80D10194401441844FFF78AFF21
:1082A00088420646C0D08778042F3BD0062FC0D125
:1082B000E27833799A42B7D81AB9012BBFD8012294
:1082C000E27030783044FFF78FFF8842ACD0D4F8AA
:1082D00012302BB9042F29D0062F30D0C4F8123019
:1082E000626852B9417E0129A9D8D0F81A2019B97B
:1082F000D0F81E109142A2D1626042F20F718A4200
:1083000092D9013B42F21071B2FBF1F21344B3FB7C
:10831000F2F30233B3F5807F28BF4FF48073C4F8C3
:1083200016308CE784F80C806573C1E7B0F807302D
:10833000B0F805205A43737D5343DB08CEE7B0F80D
:108340000520B0F8073053431B01F6E7F0ED00E0DD
:108350002DE9F0410446416990F850002369A7696E
:10836000461A1E44BE42354628BF3D46854209D2C4
:108370000F4B1D6815F0010501D000BE00252846F1
:10838000BDE8F081E368A5EB00085030194442468F
:10839000204487F093FC6369BE42434463619EBFFF
:1083A00094F8513043F0020384F85130E7E700BFFE
:1083B000F0ED00E038B514461D46884201D308466A
:1083C00038BD8378A34202D1C378AB42F8D003789A
:1083D00004221844FFF7E4FEEFE78278884202D2D5
:1083E0008378934200D07047037818448142F5D9CE
:1083F0004378042BF2D00B2BF6D1EFE72DE9F041B7
:108400000F680E46898813463944BA788046384644
:10841000FFF7D0FF8142044602D80020BDE8F0817A
:10842000037D012B05D9134B1B68DA07F5D500BE78
:10843000F3E70379CBB1012BEFD10378C5891D4454
:108440000544407A1844294605222044FFF7A8FE37
:10845000A8420146E1D2404601F04CF928B9054B4B
:108460001B68DB07D9D500BED8E7E41BF4800120E8
:10847000D4E700BFF0ED00E02DE9F84F17460B7888
:10848000424A0C460B2101FB03238246D3F80080AD
:1084900023896BB143440025997801F08FFD6389EE
:1084A00025812BB143445046997801F087FD6581C1
:1084B00000266088B4F804906661C4E9036640440D
:1084C000C14482783B464946FFF774FF8145054623
:1084D00002D80020BDE8F88F90F804B0BBF1020F7D
:1084E00005D92B4B1B68DA07F3D500BEF1E7A0EBEB
:1084F0000803E38067B1297804F108060D4406EB10
:108500004B0BB3451ED10FB1022363770120E1E786
:10851000637F012BEFD004F11E0339466777A76113
:108520003022184687F0F2FB01462046FFF772FE24
:108530000028E0D1CDE76B78052B06D0042BD0D0F6
:108540002B781D44A945F6D8CBE7EB7803F003035D
:1085500097B1012B05D1AA88A369C2F30A029A42F6
:10856000B7D32946504601F0C5F840B9084B1B68FF
:10857000DB07AED500BEADE7022BF2D0A9E7A5EB35
:10858000080326F8023B2B781D44BAE74479002003
:10859000F0ED00E0044B0548002159601960C3F874
:1085A0000710502287F0B2BB447900205079002098
:1085B000044B0548002159601960C3F80710502288
:1085C00087F0A4BB44790020507900202DE9F04FBA
:1085D0002DED028B4B790E2B08EE100A85B00C4660
:1085E000174605D0002005B0BDEC028BBDE8F08F2A
:1085F0008B79012BF6D1CB79012BF3D1314ED6F803
:108600000080B8F1000F57D13160B2803146424648
:10861000FFF7F4FE0028E5D0F2883368DFF8AC906D
:10862000134427443946204693F814B0FFF7D5FE8B
:1086300006F10803054601935FFA88FAD34503D88B
:108640002C1BA0B2B480CEE7B9F80220A2BB019BDC
:1086500089F8002003F8012B3946019328462B1B8B
:108660000392A9F80230029389F801A0FFF7B5FE42
:10867000039A029B89F81D20011B0546A9F80410E6
:10868000BAF1000F02D008F10108D5E7BBF1010FE4
:10869000F9D114FA83F014FA81F182785B46FFF77E
:1086A00089FE8142EFD118EE100A52464946FFF783
:1086B000E3FE0028E7D195E7034B1B68DB0791D564
:1086C00000BE8FE744790020F0ED00E050790020F3
:1086D0002DE9F0478846117801F01F03012B8EB079
:1086E0000746154648D1A94E938832685FFA83FC45
:1086F000B146002A00F0E6809478644540F0E280BC
:10870000C1F3411A11F0600F544603D0012C67D019
:1087100007230BE06B780A2B0AD00B2B24D09C4B41
:10872000186810F001004FF0070356D1737223E070
:10873000B8F1010F04D0002389F8093001240FE0BB
:10874000EB88012B15D1F1880A442946D2788DF89F
:10875000082002AA01F0AAFC044650B186F809A03C
:1087600020460EB0BDE8F087B8F1010FE3D1EB88E9
:1087700023B1FF2389F809300024F1E7B9F8061086
:1087800053181879A8B1525C587AD9891044114409
:10879000194405221844FFF703FD814205D87C4B9C
:1087A0001B68D807E5D500BEE3E78178384601F0BD
:1087B00005FC002689F8066089F807606A88734915
:1087C0003846FFF71BFE04460028D2D0294638461B
:1087D00001F054FC89F80960C2E700BE7372BFE77C
:1087E0001C0A57D16B881A0A012A0AD0022A3ED0E5
:1087F000674B186810F001004FF00703BAD000BEB5
:10880000B8E76B78812B24D0862B27D0012BEFD1B2
:10881000B8F1010F0BD1EB88012BAAD15D4A0123DE
:108820002946384601F042FC002884D1A1E7B8F17E
:10883000020F80D1584B002B3FF47DAF99F80A10FE
:108840000020AFF3008089F80900B0FA80F46409D1
:1088500086E7B8F1010F7FF46EAFDCE7B8F1010FE6
:108860007FF469AFEB88012B83D14C4AD8E76B7852
:10887000812B08D0862BBBD1B8F1010F7FF45BAF01
:10888000474A4346CCE7B8F1010F7FF454AF454A5D
:108890000123C5E7B9F80630D018D15CC389194463
:1088A000014481427FF647AF8378023B052B03D812
:1088B000C378A3423FF43FAF037824221844FFF764
:1088C0006FFCEEE7DFF8E0A0BAF802005646002899
:1088D0003FF452AF9AF800200B2101FB0299D9F81E
:1088E00000402044827862457FF446AF2A78C2F384
:1088F000411912F0600F484603D0012856D00723D3
:1089000041E06B780A2B0BD00B2B29D0204B1C6835
:1089100014F001044FF0070334D18AF81C301FE72C
:10892000B8F1010F02D00023337707E7EB88012B62
:1089300040F021825046FFF725FC002800F01B8202
:10894000C3788DF8083002AA43462946384601F01C
:10895000ADFB0446002800F00E828AF81C90FFE66A
:10896000B8F1010F40F0A3806A8851463846FFF7FE
:1089700083FD0446002800F0FE812946384601F0B8
:108980007DFBEAE700BE8AF81C30F5E6447900205A
:10899000F0ED00E04E790020000000003B5A0B0093
:1089A0003A5A0B004D790020507900201C0A2CD136
:1089B0006A88130A022B00F07581062B1BD0012B4D
:1089C0001ED1737F03B1747795F80190B9F1010F4F
:1089D00034D009F17F03DBB2062B11D8A9F1810352
:1089E000062B0DD8DFE813F067014000400040007F
:1089F000B001530140006B78812B08D0862B16D034
:108A0000B74B1B68DB0700F1B48107230DE0B8F119
:108A1000010F88D1434606F11C022946384601F071
:108A200045FB00287FF47FAFFF233377A4E6B8F13E
:108A3000010F7FF478AFAB4A0123EEE7B8F1010FE5
:108A400002D1A94A3023E8E7B8F1020F7FF46BAFF7
:108A5000A549A1F11E00FFF7DDFB044600287FF4C5
:108A600062AF082333777BE6B8F1010F7FF45BAF89
:108A7000EB88002B00F07F819B4B02AA03F1300EA4
:108A80001446186859689446ACE8030008337345E7
:108A90006246F6D19DF80A20B2BBB9F1830F08D027
:108AA000B9F1870F2ED0B9F1820F2BD00820307783
:108AB000CBE68E48FFF766FB10B1037B8DF80A30DA
:108AC0004FF001130121CDE904130023ADF8183054
:108AD0004FF6C043ADF8223040F29B13ADF824307E
:108AE00040F20313ADF82630814B0A93224630231F
:108AF0002946384601F0DAFA0446002800F03B81A6
:108B00000023AFE70123D9E79DF80BA00192BAF14A
:108B1000000F48D17548FFF735FB019A28B9704B13
:108B20001B68DA07C2D500BEC0E70378B0F80D10A5
:108B3000194401441844FFF73DFBB9F1830F804607
:108B400007D0B9F1870F19D0B9F1820FAED1012248
:108B500000E002798DF80B2098F800004044FFF700
:108B600043FB98F80230042B11D0062B9ED1B0F8AD
:108B70000520B0F8073053431B0110E08378042B25
:108B800003D0062B92D18279E4E7827DE2E7B0F848
:108B90000730B0F805205A4398F815305343DB08E6
:108BA000CDF81A30A2E7DDF80C80B8F1000F9DD1A6
:108BB0004E48FFF7E7FA019A0028B0D00378B0F8E2
:108BC0000D10194401441844FFF7F4FA0378524693
:108BD0001844A9F18209FFF707FBB9F1050F3FF629
:108BE00065AF01A353F829F0358C0200018C020017
:108BF0005D8C0200AD8A0200AD8A02004F8C02003B
:108C0000437EA3B1053300EB8303D3F80280D0F891
:108C10001A3042F21072B3FBF2F3CDF80C80B8F1C7
:108C2000000F22D1ADF81E80ADF820805EE7D0F8AD
:108C30001E80ECE7437E3BB1053300EB8303D3F8A2
:108C40000230D0F81A80E4E7D0F81E30F9E7D0F807
:108C5000158042F21073B8FBF3F3DEE7437E13B9DD
:108C6000D0F82280F5E70023D7E7DDF81A2043B9D2
:108C7000931CB3F5807F28BF4FF48073CDF81E306E
:108C800034E7013A1A44B2FBF3F30233F1E7B8F1E7
:108C9000010F7FF448AEEB88012B7FF4C5AE43464D
:108CA000144ABAE66B78852B4ED00DD8012B23D011
:108CB000812B7FF4A5AEB8F1010F7FF434AEEB88C1
:108CC000002B7FF4BEAEAFE6862B7FF499AEB8F1F1
:108CD000010F7FF428AEEB88012B7FF4A5AEDFE710
:108CE000F0ED00E03A5A0B006E7900205079002038
:108CF000010100083B5A0B00B8F1010F3FF4A1AE8F
:108D0000B8F1020F7FF40FAE1C49A1F11E00FFF76E
:108D100081FA044600283FF4A4AE736BB361184B8C
:108D20003BB1164A71783078AFF3008000287FF4A9
:108D3000FAAD0023C6E9033373610223A6F850306D
:108D40004FF48073B3830BE5B8F1010F7FF4EBAD03
:108D5000EB88022B7FF468AE3022ADF8082029465C
:108D600002AA384601F0A2F9044600287FF4C8AEF2
:108D70005AE600BE49E6FF2099E600BF6E79002062
:108D800000000000F8B51E4C2389054683B3277800
:108D9000DFF878C00B2606FB07C6366833449E789A
:108DA0008E4225D1D4E904329A4215D200F0FAFC61
:108DB00018B32046FFF7CCFA04F1500283B23146D3
:108DC000284600F00FFD08B1012017E00D4B1B688D
:108DD000DA0712D500BE11E00023C4E90333636152
:108DE000094B002BF0D061783846AFF30080EBE7F9
:108DF000044B1B68DB0700D500BE0020F8BD00BF98
:108E000050790020F0ED00E00000000044790020DF
:108E10000A4492B291424FEA400001D8824201DBFB
:108E2000121A92B21046704738B50546D41A084651
:108E3000A988A4B29A423CBF04EB4104A4B2B4B1E5
:108E4000A14205D2914294BF531A8B189BB26B81F9
:108E5000994209D9EA882968C2F30E0202FB03117C
:108E600086F02CFF012038BD5B1A9BB2F0E720464C
:108E7000F9E7930813B501EB8303044699420BD13C
:108E800012F0030206D0002301A8019386F016FF1A
:108E9000019B236002B010BD51F8040B2060EDE788
:108EA0002DE9F04385B08588BDF830401E1BB6B271
:108EB000A3423CBF06EB4506B6B280460F4666B3FA
:108EC000B54206D29D4294BF5C1BEC18A4B244810B
:108ED0002E46964228BF1646A54222D9B8F806006B
:108EE0009DF83430D8F80010A5EB0409751BC0F3C9
:108EF0000E0225441FFA89FC15FB02F519FB02F945
:108F0000012B1FFA89F9ADB202FB041116D0664598
:108F10000AD87243384686F0D1FE304605B0BDE827
:108F2000F083641BA4B2D7E74A46384686F0C6FEF3
:108F3000D8F800102A4607EB0900ECE7664506D88A
:108F400016FB02F292B23846FFF793FFE5E729F0ED
:108F50000304A4B2224638460191FFF78AFF19F0B4
:108F6000030929D0C9F104039BB2AB42019928BF80
:108F70002B4600222144ED1A03A80392ADB201EB67
:108F800009040246A1420DD1D8F8001009F1FF39B9
:108F900091440B4499420AD1039B3B60002DBCD005
:108FA0002A46D0E711F801CB00F801CBEAE711F827
:108FB000012B09F8012FEDE7D8F80010EEE77FB597
:108FC000044600690D461E4628B14FF0FF3103925A
:108FD0006FF0B6FD039A2389618989B2CDE9001645
:108FE0009BB229462046FFF75BFF61890246054692
:108FF00089B2A088FFF70CFF6081206920B10023AF
:109000001A4619466FF030FC284604B070BD13B5FF
:10901000930800EB8303984209D112F0030204D0B5
:109020000B68019301A986F049FE02B010BD0C68DF
:1090300040F8044BEFE72DE9FF470646C0680F46AE
:109040001546984618B14FF0FF316FF079FDF3796E
:10905000B6F808907189B488DB091FFA89F989B2DA
:109060001CD1894536BFC1EB4401A9EB010149443C
:1090700089B2A14236BF611A002189B28D4228BF50
:109080000D46002D55D1F06820B100231A4619462F
:109090006FF0EAFB284604B0BDE8F087A5420BD389
:1090A000B8F1000F05D1F3882D1BC3F30E0303FBAA
:1090B000057789462546E4E789454FEA440236BFED
:1090C000531AA9EB01034B449BB22B449342D8DBC8
:1090D000621B92B22046FFF79BFE8146D1E7ACEBC4
:1090E00004001FFA80FCA445F9D2F2883068A4EB92
:1090F0000C0A2C1BC2F30E0364441FFA8AF114FB02
:1091000003F41AFB03FAB8F1010F1A461FFA8AFAA0
:10911000A4B203FB0C0017D08D420CD86A43394629
:1091200086F0CCFDB0882A464946FFF771FE3081B3
:10913000A9E7CC46D7E75246394686F0BFFD3068EE
:10914000224607EB0A01EBE78D4206D815FB03F236
:1091500092B23946FFF75BFFE4E72AF003081FFAF3
:1091600088F8424639460190FFF751FF1AF0030A8A
:109170002BD0CAF104039BB2A34201983A68039230
:1091800028BF2346E41A08F1FF380DF10C0CA4B2F5
:109190004044514662460139C9B2FF290BD13068BB
:1091A00092440AEB0301421E514509D11844002C98
:1091B000B8D02246CDE71CF801EB00F801EFEAE752
:1091C0001AF801CB02F801CFEEE73068EFE7B2F50D
:1091D000004FF8B504460F4616461D4626D8C0680F
:1091E00018B14FF0FF316FF0ABFC206918B14FF0B0
:1091F000FF316FF0A5FC9DF81830E0682760C5F3DB
:109200000E0545EAC33500236381A680E5802381EE
:1092100018B11A4619466FF027FB206920B10023C8
:109220001A4619466FF020FB012000E00020F8BD2F
:109230000389428981889BB292B2934236BFC2EBC6
:1092400041029B1A9B1898B2884228BF0846704773
:109250000289438992B29BB2D31A5842584170474F
:109260008288038940899BB280B2834236BFC0EBBB
:109270004200181AC01880B2824286BF101A80B20B
:10928000002070470023FFF79ABE38B504460069F6
:109290000D4618B14FF0FF316FF052FC22896389FF
:1092A00029469BB292B22046FFF7BEFD05462069D3
:1092B00020B100231A4619466FF0D6FA284638BD69
:1092C00012B10023FFF7B7BE1046704710B5044631
:1092D000C06818B14FF0FF316FF032FC206918B14F
:1092E0004FF0FF316FF02CFCE06800236381238195
:1092F00018B11A4619466FF0B7FA206920B1002359
:109300001A4619466FF0B0FA012010BD38B5044670
:10931000C0680D4618B14FF0FF316FF011FC2069A5
:1093200018B14FF0FF316FF00BFCE379E06865F3A3
:10933000C713E37120B100231A4619466FF094FA5F
:10934000206920B100231A4619466FF08DFA0120DA
:1093500038BD00002DE9F041184D194E194F8046D7
:1093600000242978E3B24A1D9A4210DA38220021FB
:10937000154886F0CBFC1022FF21144886F0C6FC6D
:10938000BDE8F04112481222FF2186F0BFBC99428D
:109390004FF018020AD9396802FB03134BB90D4B81
:1093A0001B68DB0700D500BEBDE8F0815B1A02FB3D
:1093B00003635B68404698470134D2E7A47A0020F3
:1093C000485A0B00A07A0020F87A0020FC7A00208E
:1093D0000C7B0020F0ED00E037B50C460546086830
:1093E000019200F0A3FE2368019A0121284603B0F0
:1093F000BDE8304018477047024B5878003818BF16
:1094000001207047F87A0020024B1878C0F38000E2
:10941000704700BFF87A0020024B1878FF3818BF59
:1094200001207047146100202DE9F743314E337855
:10943000FF2B054644D1382200212F4886F066FCD8
:109440002E4901206FF094FA2D4B186040B92D4B36
:109450001B6813F0010F4AD1002003B0BDE8F08370
:10946000294F3B46002233F80C0B00927A6879882A
:109470006FF0BEF9B96804466FF010FC234B1C6016
:109480002CB9204B1B68DB07E6D500BEE4E7204B78
:1094900023B12048AFF300801F4B18601D4FDFF849
:1094A0007C80DFF8749000243A78E0B2531D834248
:1094B00008DA2846357000F0C6FF284600F0C4FFE1
:1094C0000120CAE782424FF0180309D9D9F80020D9
:1094D00003FB002038B90B4A126812F0010FBAE7FB
:1094E000801A03FB0080036898470134DCE700BE64
:1094F000B3E700BF14610020F87A0020A87A0020AA
:10950000307B0020F0ED00E0B8600020347B0020CC
:1095100000000000A47A0020A07A0020485A0B0026
:109520002DE9FF414378023B04460D46042B13D836
:10953000DFE803F00333222A88004F4B1A786FF3D9
:1095400000021A701A7800216FF341021A705970E4
:109550001A7861F382021A70484B1868002D77D18F
:109560002B464FF0FF3221466FF07EF9617820786C
:109570002A46FFF740FF3CE03F4B1A78D00738D52A
:109580001A7842F00402E6E73B4A1378D90730D54F
:1095900013786FF382031370DEE7374A13785B07A3
:1095A0001DD513786FF38203137002780023CDE981
:1095B00001338DF8042005228DF805202F4A0393EE
:1095C0001068C9B90B464FF0FF3201A96FF04CF992
:1095D0009DF805109DF804002A46FFF70CFF284E61
:1095E000284FDFF8A88000253178EBB24A1D9A4257
:1095F00014DA04B0BDE8F0816A4601A900936FF067
:10960000CCF9009B002BE3D01F4B4FF080525A60E7
:1096100040BFBFF34F8FBFF36F8FD9E799424FF031
:1096200018020BD9D8F8001002FB031323B15B69B1
:1096300013B16168207898470135D5E75B1A02FBC2
:109640000373F4E70C4AD3780133DBB2D37083E7BA
:10965000002301AA214601936FF09FF9019B002B83
:1096600084D0094B4FF080525A6040BFBFF34F8FF8
:10967000BFF36F8F7AE700BFF87A0020347B0020B9
:10968000A47A0020485A0B0000ED00E0A07A0020E8
:109690001FB5CDE90201154908240023019308688C
:1096A0008DF80540144672B9134601A94FF0FF32F8
:1096B0006FF0DAF89DF805109DF804002246FFF7D8
:1096C0009AFE04B010BD6A4601A900936FF065F9D7
:1096D000009B002BEED0064B4FF080525A6040BFEB
:1096E000BFF34F8FBFF36F8FE4E700BF347B0020E1
:1096F00000ED00E038B58B7803F07F03082B0C46B3
:1097000006D90B4B1B68DB0700D500BE002038BD17
:10971000084B1D78084B2046997801F023FC00285F
:10972000EFD021462846BDE8384000F0A5BE00BF76
:10973000F0ED00E014610020F87A00202DE9F047F8
:10974000DDE9085681460C4690469A460027B84502
:1097500001DC01200CE06378052B04D1E37803F0F1
:109760000303534508D00E4B1B68DA0702D40020D0
:10977000BDE8F08700BEFAE721464846FFF7BAFF8A
:1097800028B9074B1B68DB07F1D500BEF0E7A378CB
:10979000DA0914BF33702B70237801371C44D6E7E5
:1097A000F0ED00E0CB0901F07F00263303EB40032E
:1097B000024A03481168184401F08CBB307B00203A
:1097C000F87A0020CB0901F07F00263303EB400339
:1097D000024A03481168184401F0A5BB307B002001
:1097E000F87A0020154838B501F07F0500EB4500F8
:1097F00000EBD1142034A079C00707D5104B1B68AB
:10980000DA0701D4002038BD00BEFBE7A07940F0A4
:109810000100A0710B48007800F060FF0028F2D131
:10982000A37960F30003A371A37960F38203A371AA
:10983000034B1B68DB07E5D500BEE4E7F87A0020A0
:10984000F0ED00E014610020054B01F07F0203EB16
:10985000420303EBD11191F8260000F0010070479C
:10986000F87A002010B50C4B01F07F0203EB4203A5
:1098700003EBD1142034A3799B070BD4074B187842
:1098800000F0A4FFA37943F00203A371A37943F08E
:109890000103A37110BD00BFF87A002014610020FD
:1098A00010B50C4B01F07F0203EB420303EBD11424
:1098B0002034A3799B070BD5074B187800F0AAFF3B
:1098C000A3796FF34103A371A3796FF30003A3712D
:1098D00010BD00BFF87A0020146100202DE9F04F80
:1098E000A14B1B78FF2B8BB0834600F00A834FF40B
:1098F0007A72002380024FEA9B5185F009FE01280D
:1099000038BF01200490994BBBF1FF3F18681BD072
:10991000049BBBF1000F14BF1A46002207A96FF089
:1099200095F8002800F0ED829DF81D30013B072BD3
:1099300000F21C83DFE813F00A001B001A03F80290
:1099400007032700B60213035A46E7E79DF81C00F9
:10995000FFF700FD00F0E2FB854B9DF820209A7098
:10996000824B18686FF082F90028CCD1C9E29DF8CB
:109970001C00FFF7EFFC00F0D1FB7E4B002BEFD07B
:10998000AFF30080ECE77A4CE378013BDBB2E370A5
:10999000E378A04603F0FF00002BE1D123789DF887
:1099A0001C5043F00103237094F8263060F3000349
:1099B00084F8263094F8263060F3820384F8263049
:1099C00094F8273060F3000384F8273094F82730A8
:1099D00060F3820384F8273000F0A8FB9DF8202074
:1099E00002F06003602B06D1634B1B68DC0740F17B
:1099F0001B8200BE18E2402B0DD16048002800F009
:109A0000138200F093FB08AA01212846FDF7E2F833
:109A10000028A5D108E202F01F02012A00F08C8183
:109A2000022A00F0BF81002ADED1202B22D19DF82E
:109A300024300F2B00F2F8811C44514B21791B7804
:109A400099420DD24F4B1B6801EB410113EBC10151
:109A500000F0EA8108AA0C312846FFF7BDFCD7E7E1
:109A60005A1D8A42C0F2E081474AC91A182303FBF3
:109A70000121EFE7002BB7D19DF82130092BB3D896
:109A800001A252F823F000BF239D0200119D0200A5
:109A9000E9990200FD9C0200E9990200B19A0200D6
:109AA0006B9C0200E9990200CB9A0200E19A020045
:109AB00008A800F041FB9DF82210284600F0CAFCDF
:109AC000237843F0020323704AE763788DF81A3055
:109AD00001230DF11A0208A9284600F0E7FA3FE732
:109AE0009DF822300193019A63789A4234D06378CA
:109AF0003BB1284600F04AFDA6782846FFF72AFC2D
:109B0000A670019B002B00F0A980581EC0B2FCF784
:109B1000E1FE10B14378022B06D0174B1B68DF071C
:109B20007FF562AF00BE5FE7C379C3F38012C3F372
:109B300040131B0143EA4213227822F03002134300
:109B400023704388C31800F109060393039BB342B3
:109B50001ED80E4B002B7ED1019B637008A92846AE
:109B600000F08CFAFCE600BF14610020347B00207A
:109B7000F87A002000000000F0ED00E0D56B020054
:109B8000A47A0020A07A0020485A0B0000000000B0
:109B900073780B2B03BF337896F80380F6184FF0D9
:109BA00001087378042BB8D1039B9A1B92B200234F
:109BB0000293B14B9DF808701B78591D8F42ACDCA5
:109BC000BB424FF0180933D9AC4B1B6809FB07396E
:109BD000B9F1000FA1D0D9F80830059231462846D6
:109BE00098470828059A824632D9824230D3B8F184
:109BF000010F0BD1D9F80830A14A934208BF4FF0AA
:109C00000208A04A934208BF4FF002089E49002272
:109C1000D0B2804511D83B4631469C48524601F0AF
:109C2000D1F9954B1B7805339F4256448EDD74E77E
:109C30009749FB1A09FB0319CDE7B378034451FA9E
:109C400083F301321879FF287FF467AF1F71DFE7D4
:109C5000029B0133ACE7AFF300807DE78D4B002B17
:109C60003FF47AAFAFF3008076E7BDF82200030A35
:109C70005A1EC0B20E2A00F2D780DFE802F0081D9B
:109C80002ED5D5381DD5D5D5D5D5D5D51100FCF7D0
:109C90001DFE1223024608A9284600F007FAB7E67F
:109CA0007D4B002B00F0C080FCF790FF024600289F
:109CB0003FF49AAE4388EEE7022B07D1FCF70AFE89
:109CC00000283FF491AE43880246E4E7734B002B33
:109CD00000F0AA80AFF30080F2E7BDF82410FCF793
:109CE000FFFD0246002800F09F800378D3E76C4B0D
:109CF000002B00F09980AFF30080F2E7BDF822302E
:109D0000012B40F09180237843F00803237025E76E
:109D1000BDF82230012B40F0878023786FF3C30316
:109D2000F4E72378C3F340129B0803F002031343C4
:109D3000ADF81A300223CCE69DF824300F2B73D8EF
:109D40001C444D4B21791B78994222D24B4B1B6806
:109D500001EB410113EBC10166D008AA0C31284682
:109D6000FFF73AFB00287FF4FBAD9DF8203013F09D
:109D7000600459D19DF821300A3B012B54D800F0E2
:109D8000D5F99DF821300A2B7FF4E8AE8DF81A4002
:109D90009EE65A1D8A4247DB3D4AC91A182303FB37
:109DA0000121DAE79DF8241001F07F06082E3FF626
:109DB0001BAE720004EB4606DFF8BCC006EBD11602
:109DC0009CF800C0367D66454FEAD11018D206EBEC
:109DD000460C2A4E366806EBCC061BBB9DF821309C
:109DE00003F0FD0CBCF1010F29D0002B7FF4FCAD7A
:109DF00008EB0207384490F82630C3F3400397E796
:109E00000CF1050EB645C0F2B880214FA6EB0C064A
:109E10004FF0180C0CFB0676002BDFD008AA06F1D9
:109E20000C0119E6002EF9D19DF81C00002100F06C
:109E3000CDFC9DF81C00802100F0C8FC90E5BDF829
:109E4000222022B9012B284613D1FFF729FD002E2D
:109E50003FF486AD06F10C0108AA2846FFF7BCFACC
:109E6000002000F063F994F82730DE073FF578AD65
:109E700074E6FFF7F7FCEAE7A47A0020A07A002056
:109E8000A96E0200CD750200F87A00200C7B00203C
:109E9000485A0B0000000000CD6B020000000000DB
:109EA000000000009DF82010364B01F07F0403EB0A
:109EB000440303EBD11393F826006FF3000083F8FB
:109EC000260093F826006FF3820083F826003CB941
:109ED000099B9DF821209DF81C0000F03BF93FE50F
:109EE000294A1B7D127893420ED2284A126803EB4E
:109EF000430312EBC3030FD1254B1B68D80700D5D2
:109F000000BE0BB0BDE8F08F501D9842F4DB214835
:109F10009B1A182202FB03031C699DF82120099B50
:109F20009DF81C00A0471BE5164B1A78D1077FF55A
:109F300017AD194A002A3FF413AD1878C0F3C000DA
:109F4000AFF300800CE50F4B1B78DA077FF508AD07
:109F5000124B002B3FF404ADAFF3008000E5089BEB
:109F6000002B3FF4FDAC09989847F9E4084B1B68B7
:109F7000DB077FF5F5AC00BEF2E4002B7FF454AFB5
:109F80001E462BE7F87A0020A47A0020A07A002051
:109F9000F0ED00E0485A0B00000000000000000057
:109FA000054B01F07F0203EB420303EBD11191F863
:109FB0002600C0F340007047F87A0020134B10B51C
:109FC0000C462BB9124B1B68DB0700D500BE10BD39
:109FD000104B187800F024FB0F4B04F07F0103EBCB
:109FE000410303EBD41191F826306FF3410381F85C
:109FF000263091F826306FF3000381F8263091F86F
:10A0000026306FF3820381F82630E0E721A60200B4
:10A01000F0ED00E014610020F87A002037B5144913
:10A020000446CA89888991F90050831A9BB2402B53
:10A0300028BF4023002D10DA904214D01A468968B8
:10A040000C48019385F03AFE0A4A019B8021204684
:10A0500003B0BDE83040FFF7C5BB90424FF00001B0
:10A0600003D10022F3E78021FBE7024AEFE700BFBC
:10A07000F87B00200C7C00207047000030B40A4CB4
:10A0800005460A4608684968234603C392F900203A
:10A0900000239A42C4E9023328461A4630BCACBFBA
:10A0A00080211946FFF79EBBF87B0020F8B5194EBA
:10A0B0000C46054608684968B260374603C7002168
:10A0C000F181E1888B4228BF0B46B38179B143B15E
:10A0D0003AB9114B1B68DA0701D40020F8BD00BE65
:10A0E000FBE72846FFF79AFF68B10120F6E794F9ED
:10A0F0000030002B0A460B462846ACBF80210021C9
:10A10000FFF770FBF0E7044B1B68DB07E5D500BEEB
:10A11000E4E700BFF87B0020F0ED00E002481422E5
:10A12000002185F0F3BD00BFF87B0020014B1861D2
:10A13000704700BFF87B002010B50246044C006851
:10A140005168234603C30023C4E9023310BD00BF96
:10A15000F87B0020F8B52F4F1E463B78C909B1EBBC
:10A16000D31F05463C4614D03EB12B4B1B68DA0783
:10A1700001D40020F8BD00BEFBE73946FFF77CFFA5
:10A180003B690BB90120F5E73A4603212846984779
:10A19000F8E797F90030002B06DBB8680028E8D014
:10A1A0001E49324685F08AFDA268E3893244334471
:10A1B000A260E2889BB29A42E38101D03F2E24D86C
:10A1C00023699BB994F90030002B4FF000031A4625
:10A1D000ACBF802119462846FFF704FB0028D1D1E7
:10A1E0000D4B1B68DB07C4D500BEC3E70221094A3B
:10A1F0002846984701460028E4D1284600F0E6FAB0
:10A200008021284600F0E2FABCE72846FFF706FF67
:10A21000E4E700BFF87B0020F0ED00E00C7C0020BC
:10A22000064B1868043B1B68082B04D103288CBF1D
:10A230000020012070470020704700BF340100104B
:10A2400042DF704743DF704744DF704712DF7047DB
:10A2500043F2040307B51A68094B9A424FF0000015
:10A260000AD18DF807000DF10700FFF7EFFF9DF809
:10A270000700003818BF012003B05DF804FB00BFE1
:10A28000DBE5B15101230360BFF36F8FBFF34F8F45
:10A29000074B984202D0043B984207D1BFF35B8F33
:10A2A000044B002283F82021BFF35B8F704700BF6F
:10A2B000507002404C7C002010B40E4BBFF35B8FFB
:10A2C00001464FF00104D3E84F2FC3E84C4FBCF1D7
:10A2D000000FF8D1BFF35B8F12F0FF0F05D00648D7
:10A2E0005DF8044B0122FFF7D3B95DF8044BFFF78B
:10A2F000C9BF00BF6C7D0020B9A202000D4B03EB6B
:10A300004013D98A9A8A521A198B92B28A4228BF6C
:10A310000A4619691423434303F1804303F51C33B0
:10A32000C3F80016C3F80426034B03EB8000FFF7C5
:10A33000C3BF00BF4C7C002004700240F0B42C4A24
:10A34000BFF35B8F02F590734FF00104D3E84F1F0A
:10A35000C3E8454F002DF9D1BFF35B8F11F0FF0F1C
:10A3600014460BD0234B5A68C2F30802003A014648
:10A37000F0BC214818BF0122FFF78AB908281F49FD
:10A380001AD1D1F8C034D80308D5BFF35B8F0023AE
:10A3900084F82031BFF35B8FF0BC704792F80B015B
:10A3A0000028F2D0D2F800211548C1F8A027C1F842
:10A3B000A437F0BCFFF766BF02EB401500F59473BD
:10A3C000460151F82340EF88AB88DB1B9BB2A4B257
:10A3D000A34228BF23469459142202FB0011C1F85E
:10A3E0000047C1F80437074B03EB8000E1E700BFEB
:10A3F0004C7C002000ED00E009A402000070024047
:10A400004870024028700240C0B2FFF797BF07B5FE
:10A41000FFF71EFF58B1002301A80193FFF714FFB7
:10A420000198003818BF012003B05DF804FB4FF01D
:10A430008043D3F80C24D3F80C0410F4803018BFF8
:10A4400002F00100F0E77047014B80225A6070472C
:10A4500000E100E0074BD3F80014D3F800240A43CE
:10A46000C3F800240022C3F858214FF48002C3F837
:10A47000042370470070024070B58A788E883F4C84
:10A48000C97802F07F03580000EBD21004EB0010F3
:10A4900001F00301C6F30A0601294FEAD21506812D
:10A4A00029D00120364900FA03F4D5B903F10C068E
:10A4B000B040C1F80403D1F8140503F594732043A8
:10A4C000C1F8140541F823502D4BC3F8182542F468
:10A4D0008072C3F80C25BFF36F8FBFF34F8F01203D
:10A4E00012E002339840C1F80403D1F81035234339
:10A4F000C1F81035E8E7082B07D0224B186810F098
:10A50000010001D000BE002070BD1D4BDDB9B4F8C4
:10A51000182112B18022C3F81C250022C3F8502153
:10A52000D3F8002312F4001208BFC3F85421144BCF
:10A530004FF44012C3F80423D3F8142542F4807278
:10A54000C3F81425C7E70022C3F82C21B4F808216A
:10A5500012B18022C3F81C25094BD3F8002312F452
:10A56000001208BFC3F85421074AC3F80423D3F8E4
:10A57000102542F48072C3F81025ACE74C7C002013
:10A5800000700240F0ED00E0000820001F4B802228
:10A590002DE9F041C3F88420BFF34F8FBFF36F8FD5
:10A5A00001241B4DDFF87480274604F10C03A21C24
:10A5B00007FA02F207FA03F31343C5F80833A300BE
:10A5C00003F1804303F51C3300265E6008EB441062
:10A5D0009E6220223146013485F098FB082CE4D19C
:10A5E0000C4BC5F808332022C5F81C6531466E6255
:10A5F0000948AE6485F08AFBC5F81475C5F8107576
:10A60000024B80225A60BDE8F08100BF00E100E00B
:10A6100000700240000830004C7D00204C7C00207F
:10A6200070B501F07F05082D2A4B2B4C4FEAD11154
:10A6300023D0012202FA05F0C043A1B905F10C06AE
:10A64000B240C3F80823D3F814251040C3F814050A
:10A6500001EB450104EB01110023CB72BFF36F8FB7
:10A66000BFF34F8F70BDAE1CB240C3F80823D3F8C0
:10A6700010251040C3F81005EAE704EB0112002092
:10A68000A2F80801D1B94FF48012C3F80823D3F817
:10A69000142522F48072C3F81425C3F850110D4B11
:10A6A000B4F808010022C3F81C25B4F81821C242EE
:10A6B00004BF4FF40012C3F80823C9E74FF4006247
:10A6C000C3F80823D3F8102522F48072C3F81025AC
:10A6D000E5E700BF007002404C7C00202DE9FF41FF
:10A6E00001F07F00334F0E461C46430003EBD613A8
:10A6F0004FEA031807EB0313C90993F80BC03D4653
:10A700000CF0FF0EBCF1000F0AD02B4B1B6813F0AE
:10A71000010301D000BE0023184604B0BDE8F0815B
:10A7200047F808209C80A3F806E008BB04BB234B35
:10A73000D3F88034C3F3C0138B4219D02048FFF7FD
:10A74000BBFD204B59680394C1F3080100394FF455
:10A75000E06318BF012101A8CDE90144ADF8043040
:10A760008DF808608DF80940FEF7DAFE0123D3E783
:10A770000124D9B905EB4012D47220B91248FFF771
:10A780009BFD2346C8E7BFF36F8FBFF34F8F957ACA
:10A7900005F0FF03002DF4D0D47A04F0FF05002C5F
:10A7A000BAD09172FFF7CAFD2B46B5E7FFF7A6FDB9
:10A7B000E7E700BF4C7C0020F0ED00E000700240B5
:10A7C0005070024000ED00E04C70024011F07F003C
:10A7D00008B507D10D4B01225A65BFF36F8FBFF348
:10A7E0004F8F08BD0828F8D0084B41F48072C90982
:10A7F000C3F81825F1D1064B03EB40139A7A002ACF
:10A80000EBD09972FFF79AFDE7E700BF00700240B6
:10A810004C7C002011F0770F12D00A4B41F480726B
:10A82000C3F80C15C3F80C25CA09C3F8181504BFE2
:10A8300001F5947143F82120BFF36F8FBFF34F8F61
:10A84000704700BF0070024008B5184B012200217C
:10A85000C3F81425C3F810250A468B0003F1804382
:10A8600003F51C33013108295A609A62F5D10F4B68
:10A870005A629A64C3F85821D3F80014D3F800241C
:10A880000A43C3F80024D3F80023C3F80823084A76
:10A89000C3F80423074B4FF492720021184685F049
:10A8A00035FA40220283028108BD00BF00700240D9
:10A8B0000514C0014C7C00202DE9F04FB14BB24A89
:10A8C000D3F80013002385B01C4601201D4621FA51
:10A8D00003F6F6070BD552F8236046B100FA03F6EB
:10A8E000344342F82350BFF36F8FBFF34F8F0133D0
:10A8F000192BECD1E7070FD5FFF7A6FF00234FF484
:10A900008072012101A8CDE901330393ADF8042041
:10A910008DF80830FEF704FE14F4006F9B4D08D04C
:10A92000984BD3F8A8369BB2A5F81631012385F8C9
:10A930001C31A60204F4800736D5924ED6F81435A1
:10A9400013F4807308D01FB1D6F80034D80702D4AE
:10A950000820FFF7F3FC0123D6F81025D10540F1BC
:10A960005C8195F81C319BB1B5F8163100229BB281
:10A97000CDE9012285F81C2103934FF4E06288237E
:10A98000012101A8ADF80420ADF80830FEF7C8FD9C
:10A990000023CDE90133039301214FF4407301A853
:10A9A000ADF80430FEF7BCFD002F37D0754BD3F85F
:10A9B000006440F201723240C3F80024F2050DD564
:10A9C0000121C3F82C150023CDE90133039301A81D
:10A9D0004FF48063ADF80430FEF7A2FD77050FD584
:10A9E000684B0122C3F808259A65D3F8002312F4B6
:10A9F000001208BFC3F854214FF40012C3F8042317
:10AA0000B0050BD50023CDE90133039301214FF4A9
:10AA1000A06301A8ADF80430FEF782FD21023BD50A
:10AA2000584BD3F880E4D3F88424D3F88814D3F8AF
:10AA30008C74D3F89064D3F894045FFA81FCD3F853
:10AA40009814D3F89C341EF07F0F5FFA8EF8D2B2C0
:10AA5000FFB2F6B2C0B2C9B2DBB201D1052A1BD037
:10AA60004FF0000EADF806E08DF80D004FF4C06E0B
:10AA70008DF80E1001A80121ADF804E08DF80880D2
:10AA80008DF809208DF80AC08DF80B708DF80C60D8
:10AA90008DF80F30FEF744FD3D4B23406BB1BFF303
:10AAA0005B8F95F82031BFF35B8F002B40F0BD80AA
:10AAB000384B1B68DA0700D500BEDFF8D080DFF81E
:10AAC000C490DFF8D8B0474600264FF0140A06F1CC
:10AAD0000C0324FA03F3DB07F1B224D50AFB069337
:10AAE0003A68D3F8083705EB461C12FA83F23A604D
:10AAF000BCF806E098B273449BB2082E4FEA4612A7
:10AB0000ACF8063000F099803B89834240F0958094
:10AB1000BCF80630B8889BB2984240F28E8011B9DA
:10AB20005846FFF7C9FB0136092E07F12007CED1A1
:10AB3000194B2340002B00F08880124BD3F86C7423
:10AB4000C3F86C74BFF36F8FBFF34F8F14F480643E
:10AB500008D0D3F88044D3F880341906C4F3C01465
:10AB600040F18C804FF00009DFF818A000264FF06C
:10AB7000140B27FA06F3DA07F0B211D456BB4CB324
:10AB80000EE000BF00700240007102404C7C0020CB
:10AB9000FCFB1F00F0ED00E0000400014C700240DF
:10ABA0000BFB06A3D8F81020D3F8083652FA83F22C
:10ABB000C8F8102005EB4612D18A89B251FA83F306
:10ABC0009BB2D382D38AB8F814109BB2994258D959
:10ABD000FFF794FB0136082E08F12008C9D10024A4
:10ABE000012604F1100327FA03F3DB07E0B203D4D4
:10ABF0007CB9B9F1000F0CD005EB44116301CA7A9E
:10AC0000002A53D0CA88898892B291424ED9FFF760
:10AC100095FB0134082CE4D117E0002B7FF4B8AE8B
:10AC20004FF40013C6F80833B2E60023BFF35B8F7E
:10AC300085F82031BFF35B8F3FE72A44D37A3BB9D5
:10AC40001C4B1B68D80700D500BE05B0BDE8F08FCF
:10AC5000D388BB800023D372D2884FF4E060CDE963
:10AC6000013392B2ADF804008DF8081001A801215B
:10AC700003928DF80930FEF753FC54E74FF00109B9
:10AC800072E7D28A00234FF4E06160F07F00CDE9E3
:10AC9000013392B2ADF804108DF80800012101A82B
:10ACA00003928DF80930FEF73BFC93E72B449E722C
:10ACB000AFE700BFF0ED00E001287FB5044600F0EB
:10ACC000B880022853D0002842D1764BD3F8002513
:10ACD000002A3DD14FF48002C3F808234FF40062EC
:10ACE000C3F80024BFF36F8FBFF34F8F6E4B1B6809
:10ACF000082B10D16D4B1B68032B0CD86C4AD35C0E
:10AD00004BB16C4B6C4A1868032118BB49F2753083
:10AD1000186011601860FFF783FA48B1654B674A05
:10AD20001868C021C0B949F2753018601160186008
:10AD30005C4B0124C3F80045BFF36F8FBFF34F8F07
:10AD4000FFF765FB20B9FFF783FA38B1FFF778FA10
:10AD500004B070BD1160DEE71160E9E7584B186080
:10AD60001B680193019B4FF080431C60F0E74D4C42
:10AD7000D4F804351BB1FFF74AFB0028E8D1D4F81A
:10AD800000341B05FBD54FF40063C4F80034BFF357
:10AD90006F8FBFF34F8FFFF743FA48B1454B474AD8
:10ADA000186800283FD149F27531196010601960A8
:10ADB0003D4B1B68082B0FD13C4B1B68032B0BD85A
:10ADC0003B4AD35C43B13B4B3B4A186870BB49F2EA
:10ADD0007531196010601960FFF722FA48B1394BDC
:10ADE00040F2E3721A6040225A60BFF36F8FBFF3E4
:10ADF0004F8F2C4C344E80250123C4F81C55C4F8C9
:10AE00000433C6F88451FEF707FB00B17560FFF705
:10AE1000FEFA0028FBD00123C4F80435BFF36F8F7E
:10AE2000BFF34F8F94E700231360C1E70023136043
:10AE3000D2E71C4BD3F80025002A89D00022C3F8A2
:10AE40000425BFF36F8FBFF34F8F1F498020C1F8D8
:10AE50008400BFF34F8FBFF36F8FD3F80013C3F895
:10AE60000813C3F80025BFF36F8FBFF34F8FFFF7B1
:10AE7000EFF9A0B1FFF7E6F9144B5968C1F30801E7
:10AE800000230039CDE90133039318BF01214FF4AA
:10AE9000007301A8ADF80430FEF742FB58E70C4BF5
:10AEA0001C60E9E70070024030010010340100101E
:10AEB000D85A0B0000EC064014ED064014EC064096
:10AEC000000100400078024000E100E000ED00E0F9
:10AED00004000040F8B5047814F0010405460E465D
:10AEE0001FD103785A07C3F3800716D44FF0FF3100
:10AEF00030466DF025FE2C7814F001040FD12B782C
:10AF00005B0704D42B7843F004032B700124002347
:10AF10001A46194630466DF0A7FC2046F8BD3C465F
:10AF2000F5E70024F9E770B504460D4628464FF0D2
:10AF3000FF316DF005FE2378C3F380065B0708D56B
:10AF4000237813F0010203BF237862F38203237096
:10AF5000002600231A46194628466DF085FC304627
:10AF600070BD00008388C07800F003000228C3F39E
:10AF70000A0313D003281BD001280DD1022940F267
:10AF8000FF3208BF4FF480629A420DD20C4B186812
:10AF900010F0010008D000BE00207047022904D143
:10AFA000B3F5007FF2D101207047402BFBD9EDE7CC
:10AFB00002290CBF4FF4806240229A42F3D2E5E7A7
:10AFC000F0ED00E030B50A44914200D330BD4C783A
:10AFD000052C06D18C7804F07F0500EB4505E409CB
:10AFE0002B550C782144EFE710B5044600F07EF9AC
:10AFF000002384F8E830204610BD38B590F8E850BA
:10B00000044655B9012380F8E83072F027F920B9D9
:10B010002046BDE8384000F06DB9284638BD90F8AC
:10B02000E83010B504464BB1002380F8E83072F0E8
:10B0300049F92046BDE8104000F077B910BD000086
:10B040000148FFF7D1BF00BF707D00207FB50A68BF
:10B0500003689A4206460C4602D0002004B070BD38
:10B060004FF453706DF0B0FA05460028F5D00A4849
:10B0700000F064F904340023CDE901533268074934
:10B080000094331D71F084FF044628466DF0B8FA31
:10B09000B4FA84F04009E1E7707D002055BD090055
:10B0A0007FB506464FF45370CDE902230D466DF08F
:10B0B0008BFA029A044610B9002004B070BD0090CB
:10B0C00003AB281D311D71F0E1FF054620466DF0F0
:10B0D00097FA002DF0D10398EFE700220260704745
:10B0E00010B50446084672F043F82060003818BFD7
:10B0F000012010BD00220260704710B504460846CA
:10B1000072F036F82060003818BF012010BD00230F
:10B110000360704707B501920A46042101AB084459
:10B1200071F0B0FE18B9019803B05DF804FB00207F
:10B13000FAE730B5054685B04FF46370CDE90221DA
:10B140006DF042FA044678B12B1D00930190DDE9C1
:10B1500002212868012371F0D1FD054620466DF0DB
:10B160004FFAB5FA85F0400905B030BD0022012143
:10B17000C0E90021C0E902210321C0E906220161E2
:10B180000275704710B50446007D38B972F066F854
:10B1900008B901232375B0FA80F0400910BD0023DF
:10B1A000037572F08FB80F29084606D90B0705D032
:10B1B00001F0F0011031C8B27047102070472DE93E
:10B1C000F04F99B09A4602AF037D97F88480D7F884
:10B1D00090B0054689461646002B78D072F03EF8AE
:10B1E000002877D118F0070477D1A8F11003102BAD
:10B1F00073D8AB69D7F88C105A4607F10C0071F080
:10B200004FFCD7F88030E969C7E901383A1D0823B7
:10B2100007F10C0071F084FC002861D1AB685B453C
:10B220001AD128463146FFF7BEFF10F00F0305463E
:10B230001CD1EA1D22F00702ADEB020D0DF108084A
:10B240008DF808300DF10902AB1E0021002B11DB37
:10B2500002F8011B013BF9E7514607F10C0071F0C0
:10B2600083FC0028DDD06FF006002CE0C3F1100352
:10B27000DBB2DEE732464946404684F01FFDD7F890
:10B2800088002A46002184F041FDD7F88830AC427E
:10B2900008EB0401234408D2102207F10C0071F0DE
:10B2A0007BFC00BB1034E4B2EFE7CDE900370023AC
:10B2B0000A4607F10C00194671F0ACFC00280CBFDF
:10B2C00028466FF005005C37BD46BDE8F08F4FF0B3
:10B2D000FF30F8E76FF00100F5E76FF00200F2E7EA
:10B2E0006FF00300EFE76FF00400ECE7002280F856
:10B2F000E420704770B590F8E44006469CB90123FD
:10B3000080F8E4304FF4BF506DF05EF9054650B15F
:10B310000146304670F00AFF044628466DF070F989
:10B32000B4FA84F46409204670BD90F8E42022B198
:10B33000002280F8E42070F05DBF7047704708B5C8
:10B3400013460A46194670F005FDB0FA80F0400930
:10B3500008BD08B5012123206FF0B8FF232070F04D
:10B3600069F8012122206FF0B1FFBDE808400121FA
:10B37000222070F013B8000007B5002300931A468E
:10B38000194603486BF07CFF03B05DF804FB00BF77
:10B390005C7E00200EB403B50146084803AB00688C
:10B3A00053F8042B019318B100F52A6002F0C2FF94
:10B3B00002B05DF804EB03B0704700BF6882002064
:10B3C00038B5044604300D466BF052FF0023E360AD
:10B3D0002382044B2560C4E905334FF47F03E36106
:10B3E000204638BDF6590D0070B5044604300D46B0
:10B3F00016466BF05FFF002818BF0025E560268227
:10B40000204670BD024B002908BF194641617047B4
:10B41000F6590D00024B002908BF1946816170479B
:10B42000F6590D008183704710B504460068218AE3
:10B430000368DB6998470123E37710BD0023C377D6
:10B44000006803681B6A1847C07F70472DE9F34105
:10B45000C67F04460D4690461F4626B90026304654
:10B4600002B0BDE8F081C16821B9314B82685B68E8
:10B470009A42F3D0228A002AF0D0A37F05F0070079
:10B480000341DB07EBD515F47E7F08BFA38B206853
:10B4900004BF03F47E731D430368002940D09B6AF8
:10B4A00098470128DAD120683C216BF04BFF0A2233
:10B4B000294620686BF0BEFF1E4920686BF034FF00
:10B4C000616920686BF03AFF206820216BF03AFF39
:10B4D000414620686BF032FF174920686BF024FF6B
:10B4E000164920686BF020FF154920686BF01CFF9F
:10B4F00025686DF033F80A224FF47A71B0FBF1F150
:10B5000028466BF097FF0F4920686BF00DFF20680D
:10B5100039466BF013FF20680368DB6A98479EE7A3
:10B5200009490091A16801915B6A6946B8E700BFCB
:10B53000647E0020EC5B0B00F25B0B00FA5B0B00FF
:10B540006F500C00FE5B0B00F0200D002DE9F74F53
:10B55000074618461E469146884685F0ABFE411CBC
:10B5600083460846DDF830A001914BF02FF8019991
:10B5700053463246044687F0A1F9834505460DD26D
:10B5800020464BF037F8691C084601914BF01EF835
:10B59000019953463246044687F090F923464A46BD
:10B5A00041463846FFF752FF054620464BF022F849
:10B5B000284603B0BDE8F08F07B5009313468269B3
:10B5C000FFF7C4FF03B05DF804FB000007B50023DC
:10B5D00000931A46194603486BF052FE03B05DF81B
:10B5E00004FB00BF647E0020002A29D0092824D84B
:10B5F000DFE800F01A172311140B0E20051D114B64
:10B600001148002918BF18467047104B1048F8E73A
:10B61000104B1148F5E7114B1148F2E7114B124856
:10B62000EFE7124B1248ECE7124B1348E9E7134BD4
:10B630001348E6E7134B1448E3E7144B1448E0E7DC
:10B6400012487047925C0B00095C0B008B5C0B008E
:10B65000145C0B00845C0B001E5C0B007F5C0B0019
:10B66000285C0B007A5C0B00335C0B00745C0B00F5
:10B670003E5C0B006E5C0B00475C0B00685C0B00D3
:10B68000505C0B00625C0B005A5C0B00025C0B0010
:10B69000995C0B000C289ABF024B53F8200002481B
:10B6A000704700BF085D0B00A15C0B0007B50023CD
:10B6B00000931A46194603486BF0E2FD03B05DF8AB
:10B6C00004FB00BF6C7E00204B6843608B68836086
:10B6D000CB68C36010B50B6903610B7D03758B6983
:10B6E0008361CB69C3611F3100F1200300F1610266
:10B6F00011F8014F03F8014B9342F9D110BD00003E
:10B700002DE9F043D3B00C4615463D4902460023CF
:10B7100007A865F0CCFF07A866F03EFA00285AD0CB
:10B7200007A866F040FA002855D0002207A920A8F3
:10B7300066F03CFA334FDFF8D890DFF8D88020A8C5
:10B7400066F02AFA002843D020A866F02AFA037887
:10B75000002B3DD020A866F026FA00283ED020A875
:10B7600066F01FFA014604A86CF07BFC264939A854
:10B770006CF077FC39A904A86CF01CFE064639A8C9
:10B780006CF02AFC04A86CF027FC3EBBB4B120A8E6
:10B790003E6866F006FA06F52A661C4A03464146EC
:10B7A000304602F0ADFF20A866F0FBF9611E2A4684
:10B7B000C9B2FFF7A5FF20A866F085F907A939A847
:10B7C000002266F0F3F939A920A8FFF77DFFB6E75C
:10B7D00007A866F078F953B0BDE8F08320A83E686A
:10B7E00066F0DFF9039020A866F03BF906F52A66BB
:10B7F0000090039B4A464146304602F081FFDAE75B
:10B80000A8890120688200208B730B003C5D0B002F
:10B81000525D0B004C5D0B000146014865F0CBBF4B
:10B82000A889012013B5124B124C196801A803F026
:10B83000BBFE4BF061F8104868F016FA30B920688A
:10B840000E4A0F4900F52A6002F05AFF20680D4A9F
:10B850000D4900F52A6002F053FF00220A210B482F
:10B86000FFF74EFF01A803F0A7FE02B010BD00BF16
:10B870005482002068820020A8890120635D0B00AB
:10B880007B5D0B00815D0B004C5D0B0039140C00DF
:10B8900010B50446D4E900431B1BDC100A4B63437C
:10B8A0000A4C1046E21A8A4201D27CF065FD9942A8
:10B8B00038BF1946591804D2A14228BF214608466C
:10B8C00010BD2046FCE700BF35C2724FCB3D8D0056
:10B8D0002DE9F84F1746BB4204460D461A4600F0C4
:10B8E0008880A3EB0709D0E90131444EC91A4FEA19
:10B8F000E90AC91006FB0AFA714351453DD3A3EB8F
:10B9000005084FEAE8004643B24517D2A3EB090603
:10B910004A463146184684F0DFF96268AE424A442E
:10B92000626004D0721B2946801A84F0D5F94A4619
:10B9300039462846BDE8F84F84F0CEB907EB080930
:10B940004A4506D01846A2EB0902494684F0C4F9DC
:10B9500003466068AAEB0606E82202FB0600AB423B
:10B96000606003D04246294684F0B6F963684F45CB
:10B97000434463603DD04246DAE7214A5146FFF72F
:10B9800087FF0646B8B31F4B984201D97CF0EEFC06
:10B99000E82070434AF008FE8046D4F800A05545E0
:10B9A000A5EB0A0B04D05A465146404684F094F960
:10B9B00008EB0B034A463946184684F07FF9626863
:10B9C000034695424B44A2EB050705D018463A467C
:10B9D000294684F073F903461F44BAF1000F02D0E0
:10B9E00050464AF005FEE820C4E9008700FB0686C1
:10B9F000A660BDE8F88F8046CFE700BF35C2724F22
:10BA0000935D0B00CB3D8D002DE9F04F0025F5B087
:10BA1000C0E9005585600446904608A80A462B46B2
:10BA2000694965F044FE08A866F0B6F8002800F001
:10BA3000C78008A866F0B7F8002800F0C1802A4641
:10BA400008A921A866F0B2F8DFF88491DFF884A194
:10BA500021A866F0A1F8002800F0AF8021A866F0C8
:10BA6000A2F800283ED021A866F09BF8014605A860
:10BA70006CF0F7FA49463AA86CF0F3FA3AA905A82F
:10BA80006CF098FC05463AA86CF0A6FA05A86CF094
:10BA9000A3FA3DBBB8F1000F1AD021A866F081F8D7
:10BAA00008F1FF320146D2B23AA8FFF7ADFF4FF0DE
:10BAB000000361688DF800302046DDE93A23FFF786
:10BAC00007FF21A865F0FFFF3A9808B14AF090FD02
:10BAD00008A93AA8002266F069F83AA921A8FFF758
